:020000040800F2
:10000000F8040020953100085530000857300008EA
:10001000593000085B3000085D3000080000000027
:100020000000000000000000000000005F30000839
:1000300061300008000000006330000865300008EF
:10004000B9310008BD310008C1310008C5310008D0
:10005000C9310008CD310008D1310008D531000880
:10006000D9310008DD310008E1310008E531000830
:10007000E9310008ED310008F1310008F5310008E0
:10008000F9310008FD31000801320008053200088E
:10009000093200080D32000811320008153200083C
:1000A000693000086D3000087530000877300008AE
:1000B000193200081D32000821320008793000088A
:1000C0007F30000825320008293200082D32000850
:1000D0003132000835320008393200083D3200085C
:1000E000413200084532000849320008F8B50400E2
:1000F00025D004F13C05697821B9002028702046FC
:1001000001F0B9FA2421697020680268520852008F
:1001100002602068016841F40041016020680268C3
:1001200022F40042026001F048FD01466068DFF8F9
:100130005821904205D2DFF85431994205D201206E
:10014000F2BDDFF84C018142F9D32068DFF8443179
:100150004668B1FBF3F3B60943EA861646602668A3
:10016000376A6068904206D34FF4967043434FF469
:100170007A70B3FBF0F35B1CBF0943EA8713336269
:10018000491E2368DE696768974206D27F0000F047
:1001900043F8042913D2042111E0A06820B907EB29
:1001A000470700F039F805E01920474300F034F81C
:1001B00041F4804108050CBF012141F40041DFF802
:1001C000EC0106400E43DE6122681368E169206A93
:1001D00023F0C0030B43034313602268DFF8D00110
:1001E000936821690340E0680B43034393602168EF
:1001F000CA68A3696069120A034343EA0222CA601B
:100200002068016841F00101016000206860202140
:1002100069702063A870F2BDB1FBF7F1491CC1F30E
:100220000B017047006841690A0644BF0021016163
:100230007047202078700021B97000203870704716
:1002400072B62068016841F400710160206801699C
:10025000606A0170616A208D4A1C411E62627047AB
:1002600032464946204601F08BB933464A4641465C
:10027000204601F0D3B8009021684A69009289694C
:100280000091009870470000A186010080841E0044
:1002900000093D0040420F002DE9FC47064600F0F2
:1002A00089F800F06FF864D1009400F079F83046D6
:1002B00001F080F800285CD13878012859D000F08E
:1002C0007EF84146D6F800E00C9D0B98DDF828C07A
:1002D000DEF8008028F40068CEF800804FF0210E90
:1002E00087F801E04FF0400887F802804FF0000ED9
:1002F000C7F804E0C6F824C070855346708D308579
:100300004A46DFF87003F06201940095304600F031
:1003100021FF002826D106E0716A0A78026100F008
:1003200037F8411E7185308D88B122462946304606
:1003300001F0D9F888B9706A32680178116100F06B
:1003400027F800F019F8EED589B20029E4D1224649
:100350002946304601F0E7F830B17868042801D129
:1003600000F0B8FF012005E000F0B4FFFFF761FFE7
:1003700000E00220BDE8F687421E728530684269BF
:100380005307704706F13C070446787820287047E9
:10039000706A411C7162308D411E3185708D7047CD
:1003A00019230122DFF8E812704700000030FFFF38
:1003B000007CFFFF884691469A4601F041BC01212E
:1003C000397030680268D10703D4026842F0010234
:1003D000026070472DE9FC47044600200090FFF7BB
:1003E000E9FF04F13C0605467078202805D1009508
:1003F000FFF7D6FF00F00DF9002840F0C0803078FC
:10040000012800F0BC800121317000F0EFF8414676
:10041000D4F800E00C9F0B98DDF828C0DEF80080CF
:1004200028F40068CEF800804FF0220E86F801E034
:100430004FF0400886F802804FF0000EC6F804E046
:10044000C4F824C060855346608D20854A4600F07C
:1004500069FE01950097204600F0C9FE002870D182
:10046000208D10B900F0AFF81EE0012802D100F095
:10047000EFF805E002282068016804D100F0D8F800
:100480000A6062B610E000F0C7F80DE02A4639466F
:10049000FFF7E8FE002854D100F0B1F8208D626229
:1004A000411E218500F07DF8208D002860D00428B1
:1004B00049D20128EAD00228324900953B460BD1A7
:1004C000002200F0A6F800283BD1FFF7B9FE2185F5
:1004D00000F067F862B6DFE7002200F09AF8002823
:1004E0002FD100F07CF84FF47A7E20680169606AB1
:1004F0000170616A208D4A1C411E62622185608DF7
:10050000214A411E618519211368B3FBF1F1B1FB4A
:10051000FEFE232000FB0EF00090216800F036F86C
:1005200028B148694207F9D500F03FF8CFE72063CA
:1005300020217170B070716841F02001716062B665
:10054000307001201CE02A463946FFF78BFE002858
:10055000F7D1FFF77BFE218500F023F82068416981
:100560004A07A1D50069616A0870606A421C95E774
:10057000202070700021B1700020307000E0022057
:10058000BDE8F687040001000C0000200098401E22
:100590000090009870471069616A0870606A421C98
:1005A0006262608D411E61857047086840F400708A
:1005B000086021680869616A0870606A421C208DC1
:1005C0006262411E7047009021684A6900928B69FF
:1005D000009300980A6842F400720A60704720682D
:1005E000016821F48061016072B67047206802687A
:1005F000D10703D4026842F001020260704720680C
:100600000169606A0170616A4A1C704700224FF0FC
:100610000111204600F0CEBE41F48061016000204F
:10062000009021684A69009289690091009870479A
:1006300041F40061016072B60020009021684A69AF
:1006400000928B69009300980A6822F480627047D8
:100650002068016821F48061016072B6002000907A
:1006600021684A6900928B69009300980A6842F4F5
:10067000007270470000FFFF016821F48061016093
:1006800070473068016841F4807101607047000074
:1006900002001000416841F48051416070470168D8
:1006A00041F48061016070472DE9FC41044604F18A
:1006B0003C052268DFF8E88B5168D4F82CE0A87874
:1006C0006B780027102818BF402840F048829769AF
:1006D000D2F814C05FEACC7605D4BEF52A0F18BF55
:1006E000BEF12A4F47D05FEACC7645D58E0543D57B
:1006F000E06AB0F52A0F08BF012104D0E06AB0F12A
:100700002A4F01D10821E162A878402809D16869FF
:100710000028A8681ABF40F00100C0B200F0FE0037
:1007200028E02069B0F5804F16D168782128A868A4
:100730000EBF00F0FE0040F00100C0B21061606B1F
:1007400000281CBF806A00282AD1A06B00281CBF8B
:10075000806A00280FD023E0686920B900F0FDFA14
:1007600040F0F00006E06869012804D100F0F5FAD5
:1007700040F0F1001061EEE25FEA0C7615D58E05CF
:1007800013D5A868C0B21061606B00281CBF806AD6
:10079000002805D1A06B00281CBF806A0028EAD081
:1007A0002068416841F4006138E15FEA8C7600D549
:1007B0008E0540F1B880AB78E16A276B6878222813
:1007C00040F0A9806869002808BF402B04D10021AF
:1007D00000F0DCFA009ABEE26869002804BF2069D4
:1007E000B0F5404F08D100F0D7FA41F480711160A4
:1007F0006869401C6861AEE2608D28B900F0CCFAEF
:1008000041F40071116083E0608D01283CD14145C5
:1008100015D1116821F480611160216848680205D2
:1008200006D5086820F480600860002100916DE022
:10083000002200924B6900938A6900920FE0082918
:1008400018BF202903D0122F0FD1012912D0106810
:1008500020F4806010600021009100F0B3FA00984D
:100860000A6842F400720A6052E004291CBF02299F
:10087000102904D0106820F48060106044E01168F2
:1008800041F4806111603FE0638D022B29D104297E
:100890001CBF022910290CD0106840F4006000F041
:1008A00084FA976900970098136823F480631360B3
:1008B00007E0106840F4806000F077FA92690092D7
:1008C000009820684268130522D5414518BF0129C8
:1008D00004D008291CBF1029202919D1FFF7DAFEFE
:1008E00016E0106840F480601060206842681305CC
:1008F0000AD5414518BF012904D008291CBF102979
:10090000202901D1FFF7C6FE00200090FFF7B4FCBC
:10091000002169611FE200230093516900919269EF
:100920000092009917E27F075ED556683705F9D423
:100930005FEA0C662DD54F052BD55FEA4C7628D49F
:100940006978AB78E76A208D002808BF212913D188
:10095000082F1CBF202F474504D000F009FA0022C1
:10096000AA702EE000F05BFA31D10021A970204678
:10097000BDE8F64101F06AB9212903D0402B08BF38
:100980002229CFD1608D00284CD0A878402827D0CC
:10099000B1E15FEA4C77C5D58905C3D5212B1DD1BF
:1009A000E16A687821283AD1608D08B100F0A3B9D6
:1009B00008291CBF2029414506D000F0D9F90020A4
:1009C000A8702021697004E000F029FACDD0002140
:1009D000A9702046BDE8F64101F039B940281ED182
:1009E0002046BDE8F641C0E25068030517D45FEA2F
:1009F0004C6063D54B0561D55FEA4C705ED4697875
:100A000022290CD1608D04280AD3FFF7C4FD608D24
:100A1000032804D12068416821F4806141609AE193
:100A2000E16A022947D0012818BF002843D10020DD
:100A3000DFF87819009019200B68B3FBF0F04FF441
:100A40007A78B0FBF8F808EB88000090FFF79EFD7D
:100A5000D0B113689805F9D4116821F48061116050
:100A600000F063FBFFF7CBFD62622022FFF799FDE8
:100A70006A70A878402869D10021A97021632046B6
:100A8000BDE8F64101F0E4B8686840F02000686015
:100A9000506820F4E0605060226800F070F9202374
:100AA000608D421E62856B700020A8702046BDE8F4
:100AB000F64101F0CEB800F056F94CE15FEA4C7017
:100AC000FBD58905F9D5E06A618D042904D100F0D0
:100AD0004AF92168086937E1618D03290CD1516811
:100AE000042821F4806118BF0228516001D000F071
:100AF0008AF9FFF784FD2BE1618D022940F0238103
:100B0000012818BF10280CD0042818BF022803D0D1
:100B1000106840F4007007E0116841F480611160D2
:100B200003E0106820F48060106000F051F9FFF7D6
:100B300037FD2268FFF72FFD2068416821F44071DE
:100B4000416020206870A978402995D00020A870C5
:100B5000122121632046BDE8F64101F07BB86868A8
:100B600000B997695069860722D58E0520D5686837
:100B700000B197696878002100F02800282811D179
:100B800000F0F1F8780758BF0121380654BFE26839
:100B9000A2690020287002B02046BDE8F04192B260
:100BA00001F059B800F0F2F80021009A2970D2E063
:100BB000C70675D58E0573D56F78506820F4E06050
:100BC000506000210091206841690091026842F064
:100BD00001020260009800F016F9216848680205D9
:100BE00026D5222F18BF2A2F0FF2F5660FD0606B83
:100BF00000F0F5F8606B01F08DF8012818D0606BFB
:100C00004663606B01F028F890B1606B0EE0A06B5A
:100C100000F0E5F8A06B01F07DF8012808D0A06B8A
:100C20004663A06B01F018F810B1A06B416B8847C8
:100C3000608D98B1206841694A0702D50069FFF7C5
:100C4000ABFC206841694A0602D50069FFF7A4FCA5
:100C5000608D18B1686840F004006860686818B179
:100C60002046BDE8F641DAE12A2F05D1206328218C
:100C70006970204601F051F86878282808D1C4F836
:100C80002C8000F0C6F82046BDE8F64101F046B8D9
:100C9000206B222818BF222F5DD100F0BAF847E060
:100CA000212B18BF292B2DD103061DD54B051BD594
:100CB000430719D46978608D00284CD0606A0378A6
:100CC0001361606A421C626200F076F808BF29294D
:100CD00041D100F092F8212020632821697020463C
:100CE000BDE8F64101F01BB8400734D5890532D57F
:100CF000608D00282FD0606A01781161606A411C04
:100D0000616226E0430618D54B0516D5430714D477
:100D10006978608DF8B100F032F800F04DF808BF46
:100D20002A2918D100F069F822202063282169704F
:100D30002046BDE8F64100F0F0BF40070BD589051D
:100D400009D5608D38B11069616A0870606A421C0B
:100D50006262FFF726FCBDE8F381A8680004C00DBD
:100D600000F006007047506820F4806050607047C3
:100D7000506820F4E06050601121216370471069D1
:100D8000626A1070606A431C636270470091536925
:100D9000009391690091704700210091536900937D
:100DA00091690091009811687047106000220092CC
:100DB0002268536900937047608D421E6285608D82
:100DC0000028704721684A6900928B690093704738
:100DD00021680869616A0870606A421C704702688D
:100DE00053686385608D18B1686840F004006860DE
:100DF000486820F40060486070472068416821F42A
:100E00008061416070472068016821F48061016061
:100E100070470020206320216970A87070475068D7
:100E200020F4E06050602068016841F400710160C6
:100E30000020206320216970A87840287047F8B509
:100E4000054605F13D0029684E694F684278002447
:100E5000F3050AD5FB0508D56FF480734B610124B7
:100E600029680B6843F400430B60B10507D5FB0507
:100E700005D52B686FF4007144F0020459617105C7
:100E800060D5FB055ED56B8D90F800C0D5F830E0DD
:100E9000202A08BF002B6FF4806148D1BCF1210FDC
:100EA00018BFBCF1290F05D0BCF1280F08BFBEF157
:100EB000210F3CD10278EB6ADFF8E4C3082B14BFA2
:100EC000202B282A16D1C5F82CC02A68536823F491
:100ED000E06353602A685161202229680B6823F47B
:100EE00080630B600021296302704170284600F086
:100EF00015FF27E0212A17D1C5F82CC02A6320232B
:100F00000370002242702868426822F4E062426066
:100F1000286841612868FFF7AFFB2846FFF782F990
:100F2000284600F0FCFE0DE0286841610AE02B68CD
:100F3000102A18BF402A596144F0040402D12868DD
:100F400000F0C9F9300507D5F90505D529686FF412
:100F5000006044F00804486134B1286C04432C64F8
:100F60002846BDE8F2405AE0F1BD10B500F13D035E
:100F700000F148021C78916871B900685168012934
:100F800005D11368DBB203619068801C19E0116819
:100F90000904090E016112E09168012907D1136863
:100FA0000068DBB203619168491C916010BD9168D3
:100FB00002292FD1222C06D10068FFF763FB90682D
:100FC000401C906010BD418D61B1212C0AD1416A55
:100FD00003680A781A61416A4A1C4262418D4A1EBE
:100FE000428510BD418D002908BF212C16D1016812
:100FF0004A6822F4E0624A6001680A6842F40072BA
:101000000A600021016320221A705970BDE8104067
:1010100000F01CBEBDE81040FFF704B910BD38B5A4
:10102000044604F13D0528786978102914BF402949
:10103000222804D121680A6822F400620A6000F0C4
:101040002801282903D10020206329700BE02268A1
:1010500051680A0505D4602803D02020287000219B
:10106000697000202063206841680A0523D5416823
:1010700021F400614160606B0FF2652190F821203E
:10108000012A09D04163606B00F0E6FD002825D0FD
:1010900000F058F8606B0BE0A06B4163A06B00F0B0
:1010A000DBFDD8B1206800F032F800F04BF8A06BFF
:1010B000416B884712E02A78602A0AD120212970E2
:1010C0000022226400F023F800F035F800F028FE3A
:1010D00004E000F01CF8204600F0BBFD206C10F08E
:1010E0000F0F01D000F021F82878216C4A070DD5A8
:1010F00028280BD100F016F8002121632020287049
:1011000069702046BDE8324000F008BE31BD41693B
:101110004A0605D50069616A0870606A421C62620D
:10112000704720855E48E06270472068416821F47E
:10113000E06141607047206801684908490001602A
:101140002046704720680168490849000160202056
:10115000287070472DE9F84304462068DDF82080A8
:10116000099F8946016841F4807115461E46016059
:1011700000974346FFF74AFA40B120680168CA0564
:1011800044BF4FF400702064032025E0206809F07C
:10119000FE0101613B464246DFF81412FFF768F892
:1011A000A0B90090216800F081F800F01EF840B965
:1011B000012E0DD02168280A08613A4600F014F883
:1011C00030B1206C042801D100F008F8012003E0C0
:1011D0002068EDB205610020BDE8F2832068016857
:1011E00041F4007101607047414620467BE12DE9E2
:1011F000F84F05462868DDF828800B9F0C46FFF75E
:101200004EFA16462868016841F4807199460160DB
:1012100000F059F800284FF4007A2CD12968DFF843
:1012200090B104F0FE00086100F048F8002832D1C7
:101230000090296800F03AF800F036F870B9B9F17A
:10124000010F05D02968300A086100F02BF828B991
:101250002868F6B2066100F025F830B1286C042841
:1012600019D1286800F037F815E02868FFF70AFA66
:1012700000F029F838B128680168CA0548BFC5F8E8
:1012800040A0032008E0286844F00104E4B20461AF
:1012900000F014F800B10120BDE8F28F000000005A
:1012A0000000FFFF3A46414628461CE14A69009289
:1012B0003A46896900914146009870473B4642464C
:1012C00059462846AAE00097434600224FF00111F4
:1012D00028466FE03068016841F400710160704792
:1012E0007CB5002100911925416A304801F13D0289
:1012F0004FF47A7613780468B4FBF5F5B5FBF6F68F
:10130000232046430096009838B10098401E009074
:101310000C6820688505F6D403E0086C40F02000D6
:101320000864486B08B100248462886B08B100240B
:1013300084620868046824F480640460002048859E
:10134000486B08B100244463886B08B100244463EF
:10135000086804686408640004601078602809D193
:1013600020231370002454700C640846BDE87640B6
:1013700000F0D6BC03F02803282B0ED108680368C0
:1013800043F00103036028230868046844F4806480
:10139000046000200863137003E020201070002414
:1013A00054700846BDE8764000F053BC0C000020A5
:1013B000020001002DE9F8430F46089C06469046BE
:1013C00099463D0C3068E9B201290CBF406980693B
:1013D00000F06FF80CBF0120002040451CD119F12E
:1013E000010FEFD000F02CFC001B814502D3B9F1B6
:1013F000000FE7D13068E9B201290CBF406980696C
:1014000000F057F80CBF012000204045DAD100F071
:101410005CF80120BDE8F2830020FBE72DE9F041F4
:101420000F460646144698463D0CE8B2012837D1CF
:1014300030684169394089B2B8B2814237D03068EA
:1014400041694A0510D500F039F832685061002131
:1014500006F13C003163202242708170426842F004
:1014600004024260017014E014F1010FDDD000F0BD
:10147000E7FBA0EB0800844201D3002CD5D1E9B2F0
:101480003068012908D1406900F013F8D0D000F08D
:101490001CF80120BDE8F081806900F00AF8F6D15F
:1014A00030688169394089B2B8B28142C7D1002021
:1014B000F0E7384080B2B9B288427047016841F421
:1014C000007101606FF4806070470020306320215C
:1014D00006F13C00002241708270416841F0200119
:1014E00041600270704770B505460C461646286884
:1014F0004169080615D4284600F06DF878B914F152
:10150000010FF4D000F09CFB801B844201D3002C1F
:10151000EDD1286841690806E9D400F024F80120DB
:1015200070BD002070BD70B505460C461646286893
:101530004169480715D4284600F04DF878B914F1F0
:10154000010FF4D000F07CFB801B844201D3002CFF
:10155000EDD1286841694807E9D400F004F801207A
:1015600070BD002070BD002105F13C0029632022E0
:1015700042708170426842F0200242600170704700
:1015800070B505460C461646286841694A0620D4BF
:101590004169CA060FD56FF0100141610020286330
:1015A000202105F13C0000224170827041684160B9
:1015B0000270012070BD00F043FB801B844201D308
:1015C000002CE1D1286841694806DDD4FFF7CBFF44
:1015D000EFE7002070BD01684A6953050FD56FF42D
:1015E00080624A61002101633C3020224270817098
:1015F000426842F0040242600170012070470020FE
:10160000704730B4002513E050F8042BD30744BFD3
:10161000A9F101039A18091F042942F8045BFAD2C0
:1016200013468C0744BF15809B1CC90748BF1D701B
:1016300050F8041B0029E7D130BC7047444881B002
:10164000016841F001010160026802F001020092AC
:101650000099426842F080524260406800F0805039
:10166000009000983B48016821F0E06141F0007172
:10167000016001B0704718B585B004461022002102
:1016800001A800F04EFB2168334881422CD1304C38
:10169000216841F008012160C021206800F00800A5
:1016A0000090122200982D4801910292032104918A
:1016B00001A900F041FB606840F400106060002266
:1016C000606800F400100090002100981F2000F0D6
:1016D0002BFC1F2000F045FC00220021202000F000
:1016E00023FC202000F03DFC06B010BD00681C4922
:1016F000884200D0704780B51548026842F4006205
:1017000002600022006800F4006000900021009850
:10171000182000F009FC182000F023FC0022002112
:10172000192000F001FC192000F01BFC0022002110
:101730001A2000F0F9FB1A2000F013FC002200210F
:101740001B2000F0F1FBBDE802401B2000F009BCAB
:10175000181002400400014000540040000C0140F9
:10176000002C01402DE9F843040016D02078DFF862
:101770006064C10713D5706800F00C00042807D01E
:10178000706800F00C00082841D17068C1033ED594
:101790003068810303D56068002800F064812078F8
:1017A000DFF83C74810719D5706810F00C0F07D072
:1017B000706800F00C00082861D17068C1035ED425
:1017C0003068810703D52069012840F04C813168D9
:1017D000606921F0F80141EAC00131602178080711
:1017E00040F18180A069DFF8FC13002800F0A6809A
:1017F00001220A6000F024FA0546706A810763D46A
:1018000000F01EFA401B0228F7D903202EE1606881
:10181000B0F5803F04D1306840F48030306014E08F
:1018200008B930680AE0B0F5A02F306806D140F45E
:1018300080203060316841F4803105E020F4803050
:101840003060316821F480213160606858B100F067
:10185000F7F9054630688103A1D400F0F1F9401B87
:101860006528F7D3D1E700F0EBF90546306881032E
:1018700095D500F0E5F9401B6528F7D3C5E7206949
:10188000A8B10121396000F0DBF905463068810715
:1018900005D400F0D5F9401B0228F7D9B5E7306828
:1018A000616920F0F80040EAC100306096E73860D6
:1018B00000F0C6F90546316888078FD500F0C0F9F9
:1018C000401B0228F7D9A0E7DFF808030168C90820
:1018D0004FF47A72B1FBF2F2009200BF0098411E01
:1018E00000280091F9D1207841076ED5F0690025D4
:1018F000C10009D4F06940F08050F0610125F06921
:1019000000F0805000900098DFF8DC82D8F80000EA
:10191000C10520D4D8F8000040F48070C8F8000059
:1019200000F08EF98146D8F80000C10513D400F00C
:1019300087F9A0EB09006528F5D366E7086000F099
:101940007FF90546706A8107CDD500F079F9401B13
:101950000228F7D959E7E068012808D008B9306AA9
:1019600009E00528306A06D140F004003062306A90
:1019700040F0010005E0400840003062306A20F08D
:101980000400306241F28938E06860B100F058F933
:101990008146306A810713D400F052F9A0EB0900A8
:1019A0004045F6D331E700F04BF98146306A8107B4
:1019B00006D500F045F9A0EB09004045F6D324E731
:1019C0001DB1F06920F08050F061E06900284CD032
:1019D000716801F00C01082938D002282AD100F0E2
:1019E00047F805463068810105D500F029F9401B0C
:1019F0000228F7D909E7206AB0F5803F05D1716860
:101A0000A06821F40031014371607268206A616A44
:101A100022F4741202430A437260012000F029F894
:101A200004463068810120D400F00AF9001B022826
:101A3000F7D9EAE600F01CF804463068810114D5B5
:101A400000F0FEF8001B0228F7D9DEE601280AD0D4
:101A50007068226A00F48031914202BF00F4701075
:101A6000616A884201D0012000E00020BDE8F283D5
:101A70000020386600F0E4B82DE9F0410400884603
:101A80004ED05A4E00F077F802D200F06FF847D1EE
:101A900020684F4D810712D5400703D5696841F48E
:101AA000E06169602078010703D5686840F4605000
:101AB00068606968A06821F0F001014369602178DD
:101AC000C80725D56068012802D129688A0303E088
:101AD0000228296802D18A0102D421E08A071FD591
:101AE0006968890840EA8100686000F0A9F8074643
:101AF0006868616800F00C00B0EB810F08D000F05E
:101B00009FF8C01B41F289318842F1D303202BE0BA
:101B1000306800F00700804504D200F027F801D0BB
:101B2000012021E02078410705D56A68E06822F4A9
:101B3000E06202436A602178080706D56968206977
:101B400021F4605141EAC001696000F019F86A6847
:101B50002749204BC2F30312895CC84018601F4814
:101B6000006800F029FA0020BDE8F0813168C9085A
:101B700048EAC1013160306800F007004045704715
:101B80001C4915480A6802F00C03082B00D0704766
:101B900010B500BF1AA4C2F38343D203E35C08D597
:101BA000096858431AA3C1F340415A5CB0FBF2F0F4
:101BB00010BD18461049484310BD06480D4A00683C
:101BC00013680E49C3F30222FFE7895CC8407047DF
:101BD000001002400C00002000127A0008000020D3
:101BE0000000424280044242007000400020024057
:101BF000703100080410024000093D00B0310008B7
:101C000002030405060708090A0B0C0D0E0F10103D
:101C1000010230B40EE00268436802440830DC0779
:101C200044BFA9F10104E31852F8045B43F8045BD4
:101C3000091FF9D150F8041B0029ECD130BC7047C2
:101C400001484068704700BF00000020704770479F
:101C5000704770477047704738B590F821200024CE
:101C6000022A00F1340103D00420486001243BE043
:101C70000268136823F00E0313600268DFF87830FF
:101C800015686D086D00156002689A4208BF012250
:101C900022D0DFF868309A4208BF10221CD0DFF84B
:101CA00060309A4208BF4FF4807215D0DFF854308C
:101CB0009A4208BF4FF480520ED0DFF84C309A425F
:101CC00008BF4FF4803207D0DFF840309A420CBF93
:101CD0004FF480124FF08072DFF834301A6000F059
:101CE00005F8096801B18847204632BD012280F815
:101CF000212080F820407047080002401C0002406C
:101D00003000024044000240580002406C00024093
:101D10000400024090F821007047704770477047F8
:101D2000704710B5044610460A460146204600F0AA
:101D300063F9204610BD00002DE9F8474FF0000E72
:101D400000245F4A5F4BDFF880814FF00F09824625
:101D50000CE017683840106006E055604D68ED03F0
:101D6000F7D51068074317600EF1010E0F6837FAB8
:101D70000EF000F09F80012000FA0EF63740B742C7
:101D8000F2D1486838B301281AD002281DD00328A0
:101D90002ED0112816D012281AD04C4DA8421CBFA4
:101DA0004B4DA84217D04B4DA8421CBF4A4DA842EC
:101DB00011D04A4DA8421CBF494DA8420BD018E093
:101DC000CC6816E0CC68241D13E0CC68083410E021
:101DD000CC680C340DE0886808B9042409E00128B7
:101DE00019BF0824CAF814600824CAF8106000E07B
:101DF0000024B7F5807F03D250464FEA8E0C05E0F1
:101E0000AEF108050AF104004FEA850C056809FAED
:101E10000CF6B54304FA0CF6354305604868C0007B
:101E2000A2D5D8F8000040F00100C8F80000D8F8AA
:101E3000005005F0010500954FEA8E0500984FEA25
:101E40009E0053F8206005F00C0C09FA0CF526EA08
:101E50000505244EB24508BF00260ED0224EB245DD
:101E600008BF012609D0214EB24508BF022604D082
:101E70001F4EB2450CBF0326042606FA0CF6354366
:101E800043F82050F8434D68ED0295684CBF3D4340
:101E9000054095604D68AD02D5684CBF3D43054097
:101EA000D5604D685668AD034CBF47EA060500EAA9
:101EB000060552E7BDE8F18702B9090401617047E0
:101EC00000040140080001401810024000001110F9
:101ED000000012100000211000002210000031103C
:101EE0000000321000080140000C014000100140C9
:101EF000001401400901020002D4294881547047AE
:101F0000284B02F00F021A4402F8041C7047264BBB
:101F100019684FF6FF020002114000F4E060084328
:101F2000224908431860704770B51F4B1C68C4F302
:101F300002230124C3F10705052D2EBF0F2504FA46
:101F400005F56D1E1E1D072E34BF0023DB1E294024
:101F5000994004FA03F3BDE870405B1E1A40114338
:101F6000C8E7010007D4012200F01F01104B8A408E
:101F7000400943F82020704710B5401EB0F1807F23
:101F800001D3012010BD0B4C60600F214FF0FF30DA
:101F9000FFF7B0FF0021A16007202060002010BDE6
:101FA00000E400E018ED00E00CED00E00000FA05B0
:101FB00000E100E010E000E038B50D4D0D4B2A784F
:101FC00004464FF47A711868B1FBF2F2B0FBF2F0FC
:101FD000FFF7D2FF50B9102C08D2002221464FF053
:101FE000FF30FFF7A1FFAC60002032BD012032BD01
:101FF000000000200C00002062F30F2262F31F4259
:10200000401810F0030308D0C91A1FD3DB0748BFDC
:1020100000F8012D28BF20F8022D130030B414461B
:102020001546103928BF20E93C00FAD8490728BFD7
:1020300020E90C0048BF40F8042D890028BF20F893
:10204000022D48BF00F8012D30BC7047C91818BFD9
:1020500000F8012DCB0728BF00F8012D70470000C4
:1020600038B5040001D1012032BD00F04BF818B999
:1020700000F050F9FFF73AFB2DE090F83D100129F0
:1020800001D001207047022180F83D100168CA6824
:1020900042F00102CA600068DFF86010884218BF91
:1020A000B0F1804F07D0DFF8581088421CBFDFF82E
:1020B0005C20904209D1816801F00701062908D00F
:1020C000016841F00101016003E0026842F0010291
:1020D00002600020704702206870211D206800F017
:1020E0001DF90120A872A870E87028716871A871A4
:1020F000E871287268726870002032BD002C0140BF
:102100000004004004F13C05687870470008004076
:1021100010B50446206801698A0715D5C1688A0789
:1021200012D56FF00201016101222277806910F05F
:10213000030F204602D000F061F903E000F05FF9E0
:1021400000F087F800202077206801694A0715D53C
:10215000C1684A0712D56FF004010161022222779B
:10216000806910F4407F204602D000F047F903E078
:1021700000F045F900F06DF8002020772068016933
:102180000A0715D5C1680A0712D56FF00801016169
:1021900004222277C06910F0030F204602D000F01D
:1021A0002DF903E000F02BF900F053F80020207720
:1021B00020680169CA0615D5C168CA0612D56FF034
:1021C0001001016108222277C06910F4407F204687
:1021D00002D000F013F903E000F011F900F039F833
:1021E0000020207720680169CA0708D5C168CA079E
:1021F00005D56FF001010161204600F001F920686A
:1022000001690A0608D5C1680A0605D56FF0800184
:102210000161204600F0A8F9206801694A0608D546
:10222000C1684A0605D56FF040010161204600F003
:102230009CF9206801698A060AD5C1688A0607D513
:102240006FF0200101612046BDE8104000F08EB91A
:1022500010BD204600F08BB970B5064606F13C056E
:1022600000242878012801D1022070BD01202870A7
:1022700002226A70DFF804013268936803409360B9
:102280000868020018BF102830D0202818BF302856
:102290002CD0402826D0502819D060281BD0702878
:1022A00006D0B0F5805F27D0B0F5005F07D022E000
:1022B00000F02BF83068816841F0770105E000F00C
:1022C00024F83068816841F48041816014E000F0B6
:1022D00018F850210BE0CA684968306800F067F8C8
:1022E000602104E000F00DF8402100E00146306874
:1022F00000F06FF800E001240120687000F00AF897
:1023000070BDCA684968306842E0CB684A6889682D
:10231000306866E0002129702046704770B5184E7D
:102320000368184C184DB04218BFB0F1804F03D06D
:10233000A84218BFA04209D14A6823F07003134392
:10234000B0421CBFB0F1804FA84201D0A04203D1DF
:10235000CA6823F4407313434A6923F0800313438C
:102360000360B0428B68C3620A68826202D1096965
:10237000064A11600123436170BD00008800FFFF21
:10238000002C01400008004000040040302C0140B7
:1023900010B5036A046A64086400046223F00A0347
:1023A000846924F0F00444EA0214846123E010B547
:1023B000036A046A24F01004046223F0A003846911
:1023C00024F4704444EA0234846143EA0113036252
:1023D00010BD826822F07002114341F00701816054
:1023E000704710B5846824F47F442143114341EAC7
:1023F0000321816010BD1943016210BD7047704711
:1024000000683A49884208BF00F026B9704710B505
:1024100086B000F055F900F073F83548354C016886
:1024200041F004010160026802F004020092009988
:102430000268314942F00802026000682F4A00F049
:1024400008000090009821600020A06000214FF457
:10245000804020616260E1606161A161E1612162AF
:102460002046FDF743FE08B100F07CF81022002161
:1024700002A8FFF756FC082200216846FFF751FC2E
:102480001A48606540F27F210020E0656066A06622
:10249000A165802040F2E731E066216604F1540036
:1024A000FFF7DEFD08B100F05DF84FF480500290B8
:1024B00002A904F15400FFF7CFFE08B100F052F872
:1024C00000210091019104F15400694600F00AF9DD
:1024D00008B100F047F804F15400FFF7CEFD00F01A
:1024E00053F800F082F800F0B3F8FEE7002C01404A
:1024F000181002401400002000540040801A06000A
:1025000000B58FB02822002105A8FFF70AFC14228D
:1025100000216846FFF705FC02210122059109927E
:10252000102102220A910C9200214FF460120D91A9
:102530000E9205A8FFF716F908B172B6FEE7022160
:1025400001910F204FF480610090002203910292CC
:10255000049202216846FFF78FFA08B172B6FEE7CF
:102560000FB000BD72B6FEE7704770477047704706
:1025700010B54E4C04F1180000F0E6F804F1140018
:10258000BDE8104000F052B910B5484C04F11800F5
:1025900000F022F91E2000F0D9F904F1180000F033
:1025A000D7F81E2000F0D2F9062104F1180000F03F
:1025B000E2F800F049F800F01FF900F045F800F0EB
:1025C0001FF900F041F800F021F900F03DF800F0AB
:1025D00021F900F039F800F0D5F8354800F0FAF9A3
:1025E000A0804FF4FA70208110BD38B52F4C00F058
:1025F0002BF800F015F90021A1801E2000F0A6F9AB
:10260000E288E068B4F90210521CE28008182189BF
:10261000E06092B29142F0D290FBF1F06081002034
:10262000E080E060224D6189284600F0C1F928462B
:1026300000F0D0F9A0800122002020614021BDE8F7
:1026400038401C48FFF738BC002104F118007047DF
:102650001649002008617047F8B5144E06F11800BD
:1026600000F0A9F8B788C71B77803FB2380048BF91
:102670004042022814DB306900F0AEF90D460446F2
:10268000192197FBF1F000F0CBF90B4A0B4B00F04E
:10269000D9F922462B4600F0A7FA00F063FB30611F
:1026A000306900F093FB00B2F2BD0000B0000020E2
:1026B00000000108001001407B14AE47E17A943F0E
:1026C00080B50748016841F0100101600320FFF761
:1026D0001EFC0F20FFF770FCFEF7B0FF002002BDCC
:1026E0000020024070B500F13C031A78012A01D1A4
:1026F000022070BD01221A7002245C7005686E68A9
:10270000AC680A6826F0700616436E6002680B48D3
:10271000824218BFB2F1804F05D0094882421CBFE7
:10272000084DAA4204D1486824F080040443946010
:10273000012159700020187070BD0000002C01406C
:10274000000400400008004000BF6821017070478D
:1027500010B50446012100F049F80021204600F0A0
:1027600011F80021204600F013F82046BDE8104083
:10277000002100F035B880B500F010F81A2100F003
:1027800081F801BD80B500F023F804221B21F6E793
:1027900080B500F01DF804221C21F0E7009103230E
:1027A00000780222704700F049F86178A07840EA8A
:1027B000012000B232BD38B500F002F84721F2E73F
:1027C0000446164805880095631C2078022270474D
:1027D000009102230078704700780123072202E06D
:1027E0000B46007806226B2100F036B880B5FFF763
:1027F000D5FF6B21FFF7C3BF0B460078052202E02F
:102800000B46007804226C2100F026B80B460078B5
:102810000222F8E70B4600780122F4E710000020BE
:102820008AB20078172100F054B80000704780B5D4
:1028300000931346012200F001F802BD1FB501927A
:1028400000930A46069C0294410001233D48FDF78F
:10285000C1FD40B204B010BDF8B500F020F801236E
:102860009DF8000003FA06F6002F14BF064320EA85
:1028700006068DF8006029469DF80020204600F0ED
:1028800022F8F2BDF8B500F00AF830B90121069837
:102890009DF8002000F00BF8EBE70020F2BD164693
:1028A000294A1F46138804460D466A46BFE7F61BB1
:1028B00001FA07F7761C7F1EB74000FA06F6BA4306
:1028C0003E401643704704B56B46012200F007F8FE
:1028D00002BD04B56B46012200F010F802BD1FB521
:1028E000019200930A464FF47A7441000294012346
:1028F0001448FDF7D1FC012004B010BDF8B588B034
:10290000002403AE0AE033F814502D0A06F81450E0
:1029100006EB440733F814507D70641C9442F2DBDC
:10292000520001924FF47A740A4603AD41000294BA
:10293000009501230348FDF7AFFC012009B0F0BD6D
:1029400000000000140000201000002038B50446EC
:10295000FFF776F914F1010F054602D00449087813
:102960000419FFF76DF9401BA042FAD331BD00BF37
:10297000000000200D490A68D307FCD40A689306BA
:1029800044BF20220A604B6843F002034B6088601A
:10299000486840F04000486008688206FCD5202066
:1029A00008604A6822F002024A6070470C20024028
:1029B00038B505460C4600F05AFA2846FFF7DAFF0C
:1029C000224600232946012000F016FABDE83140D6
:1029D00000F05DBA00687047C0F3C75181B1FF29AC
:1029E00006D0C110400721F0E04101F1605170476D
:1029F00041020CBF40F4E0016FF00041002070473D
:102A000000F0004100020AD0B0FA80FC00FA0CF09D
:102A100001F16051A1EB0C5101EBD0214005704751
:102A2000C11768B14840401AB0FA80F29040D21CF9
:102A3000C907C2F5846241EA025202EBD021400587
:102A400070470000B0B581EA030C0CF0004C40F276
:102A5000FF7515EA11541DBF15EA1357AC42AF427A
:102A600039E0E41923EA455343F48013C90241F0E5
:102A7000004141EA505EC7021100A7FB0202002894
:102A80004FF00000EEFB01204FF00001E3FB0721B7
:102A900018BF42F00102401800214941E3FB0E013A
:102AA000A4F580640F0302D252004041494154F121
:102AB00001046CDD470872F1004250F1000051EB57
:102AC0000451A1F580115CBF41EA0C01B0BD4CEA94
:102AD00005510020B0BD05EA1357AC4214BFAF4208
:102AE00041E050EA410E1CBF52EA430E02E061464B
:102AF0000020B0BD24423C441BD15FEA070EF6D053
:102B0000090302BF01460020AEF1140EB1FA81F7AD
:102B1000AEEB070401FA07FE0C37C7F1200100FAFB
:102B200007F7C8404EEA000E23EA455343F48013EA
:102B3000A2E733F00043B3FA83F704BFB2FA82FE90
:102B400077440B3FE41BB7F1200E2FBF02FA0EF3C0
:102B5000BB40C7F1200E22FA0EFE38BF43EA0E0337
:102B6000BA40641C82E750EA410E14BF52EA430E99
:102B70006FF000014FF4001717EB430F8ABF19469F
:102B800017EB410FB5E74CEA05510020B0BDD4F179
:102B90000104B4F120070FDAC4F12007520828BF5E
:102BA00042F0010210FA07F501FA07F7E1BF2A43E4
:102BB000E0403843E1400FE0352C98DCC7F12004B9
:102BC00052EA400220FA07F218BF42F0010231FA3D
:102BD00007F0A1400A43002172F1004250F10000C9
:102BE00051EB0C01B0BD000070B44FF0004591EA0C
:102BF000030F40F1B5816B40841A71EB030604D2D8
:102C00006E40001BB141121973414FF4001C1CEBC4
:102C1000410F34BF7CEB430683E00C0DA4EB13564D
:102C2000362E00F37C80012E45EAC32341DC43EAC3
:102C3000525312BFD20292025B08240545EAC12119
:102C400041EA5051D2EBC020994125D407D1B0FAC6
:102C500080F610FA06F162D00020203608E0B1FAC2
:102C600081F6B140C6F1200220FA02F21143B040D1
:102C70004FEAF474B4EB465434F001064FEA74049E
:102C80000AD8D6F50016760D04F00044F04061FA3B
:102C900006F25040F1404840C00A40EA415021F05D
:102CA000004128BF5FEA500550F1000044EBD121FC
:102CB00035E0DB0A45EAC121C90AB6F120050EDD7F
:102CC00042EA0242120CC5F1200603FA06F6EB4076
:102CD00042EA06056D42984161F100010DE062FA99
:102CE00006F5F240554063FA06FC82EA0C02F34016
:102CF0005A406D42904161EB030111F4801F05D1F0
:102D0000641E620502D06D004041494121F48011EA
:102D1000430875F1004350F1000041EB045170BCD1
:102D200070471CEB410F15D223F0004352EA4306D3
:102D30000BD04FEA4C0CBCEB410F04D80C0D661EB7
:102D4000342EB7DDEBE7801A994150EA410608BFFF
:102D50000021E4E708BF1CEB430F28BF6FF0000120
:102D6000DDE7000001F000428B1AA3F16051B1F5DC
:102D7000801F0ADBB1F17F6F1FD242EAC102C1009E
:102D800071F1004142EB507070470B15C3F109031C
:102D9000212B10D2890241EA905180020128494139
:102DA00041F0004121FA03F0C3F12003994071F191
:102DB000004150417047100070476FF0000013EB66
:102DC000103F5CBF000E42EAC0507047C0F3C751CD
:102DD0007E390EDDC217D1F1200106DD000240F080
:102DE0000040C840104450407047D04380F000403D
:102DF00070470020704700002DE9F84F524E0746FB
:102E0000307E01288B461446994608BF02202CD0FC
:102E1000012030764CF2503A504600F04BF8010059
:102E200021D1012F08BF012103D0022F0CBF0221A5
:102E300004210025454F884600E06D1C454512DA07
:102E4000204649462A0100F0F5F881B20BEB450017
:102E500000F025F8504600F02DF83968490849007F
:102E600002003960E9D000213176BDE8F28F39499E
:102E7000CA680020130600D4704710B5364A374C94
:102E80000A600C60C9680A0648BF012010BD2F48BF
:102E9000016841F08001FFE701600020704710B534
:102EA000294B0022DA61294A146844F001041460B5
:102EB000018010BD70B50446FEF7C2FE0646244DE3
:102EC0002868C1070AD514F1010FF9D024B1FEF723
:102ED000B7FE801B8442F3D2032070BD28688106B0
:102EE00044BF202028602968C80605D42969C8077E
:102EF00002D42968480703D500F004F8012070BD0A
:102F0000002070BD10B5124A0F4913680020DC067E
:102F100004D5C86940F00200C861102013685C073E
:102F200005D5CB6943F00103CB6140F00400136980
:102F3000DC0707D5CB6943F00403CB61116949086D
:102F400049001161106010BDD8000020102002401F
:102F50000C2002400420024023016745AB89EFCDDD
:102F6000841A71EB030603D2001BB141121973419D
:102F70004FF4001C1CEB410F34BF7CEB430442E0D8
:102F80000C0DA4EB1356352E4FDC45EAC323DB0AA8
:102F900045EAC121C912B6F120050DDD63FA05F637
:102FA000EB4086EA0305124218BF45F00105C01840
:102FB00051F100010CD213E062FA06F5F2405540DF
:102FC000F3415A40B340F3405A408018594107D367
:102FD00049085FEA30005FEA350528BF45F0010582
:102FE00001F58011420875F1004250F1000041EBFB
:102FF00004514E0016F5001F70BC38BF704700200A
:10300000090D090570471CEB410F10D252EA430627
:103010000BD0BCEB410F05D80C0DAB43661E342E14
:10302000B6DD02E0AB438018594170BC704770BCFC
:1030300070470000D2B2203A22BF21FA02F00021EC
:1030400070472032D141D04048409140D140484063
:1030500070470000FEE7FEE7FEE7FEE7FEE7704789
:103060007047704700F012B801E0000000BF05484B
:10307000FFF74EB8FBE7FAE70348FDF715BB024838
:10308000FDF7DDBE680000201400002002494A68F8
:10309000087882184A6070470000002010B5074980
:1030A00079441831064C7C44163404E00A68081D43
:1030B000114488470146A142F8D110BD0800000024
:1030C0002C0000003FE5FFFFE4000000140000209A
:1030D000000000003FEBFFFF14000000A400000010
:1030E00000000020000000000500000010B50446AC
:1030F000044979440E31044878440C3000F006F855
:10310000204610BD4C0100004401000038B50446C3
:103110000D46AC4205D0206820188047241DAC42E3
:10312000F9D131BD00F00DF8002801D0FFF7B6FF4E
:10313000AFF300800020AFF30080FFF768F900F0E4
:1031400002F80120704700F001B800000746384639
:1031500000F002F8FBE7000080B5AFF30080024A00
:1031600011001820ABBEFBE72600020070470000EC
:103170000000000000000000010203040607080927
:103180000100000000000000100000000024F40016
:10319000E803000001488047014800476D310008FE
:1031A000A5310008AFF30080AFF30080FFF7BAFF4E
:1031B0000000000001020304FFF7FEBFFFF7FEBF9F
:1031C000FFF7FEBFFFF7FEBFFFF7FEBFFFF7FEBF33
:1031D000FFF7FEBFFFF7FEBFFFF7FEBFFFF7FEBF23
:1031E000FFF7FEBFFFF7FEBFFFF7FEBFFFF7FEBF13
:1031F000FFF7FEBFFFF7FEBFFFF7FEBFFFF7FEBF03
:10320000FFF7FEBFFFF7FEBFFFF7FEBFFFF7FEBFF2
:10321000FFF7FEBFFFF7FEBFFFF7FEBFFFF7FEBFE2
:10322000FFF7FEBFFFF7FEBFFFF7FEBFFFF7FEBFD2
:10323000FFF7FEBFFFF7FEBFFFF7FEBFFFF7FEBFC2
:10324000FFF7FEBFFFF7FEBFFFF7FEBF25F3FFFF4F
:04000005080031A519
:00000001FF
